{
  "contractName": "Election",
  "abi": [
    {
      "inputs": [],
      "stateMutability": "nonpayable",
      "type": "constructor"
    },
    {
      "inputs": [
        {
          "internalType": "uint256",
          "name": "",
          "type": "uint256"
        }
      ],
      "name": "contestants",
      "outputs": [
        {
          "internalType": "uint256",
          "name": "id",
          "type": "uint256"
        },
        {
          "internalType": "string",
          "name": "name",
          "type": "string"
        },
        {
          "internalType": "uint256",
          "name": "voteCount",
          "type": "uint256"
        }
      ],
      "stateMutability": "view",
      "type": "function",
      "constant": true
    },
    {
      "inputs": [],
      "name": "contestantsCount",
      "outputs": [
        {
          "internalType": "uint256",
          "name": "",
          "type": "uint256"
        }
      ],
      "stateMutability": "view",
      "type": "function",
      "constant": true
    },
    {
      "inputs": [],
      "name": "state",
      "outputs": [
        {
          "internalType": "enum Election.PHASE",
          "name": "",
          "type": "uint8"
        }
      ],
      "stateMutability": "view",
      "type": "function",
      "constant": true
    },
    {
      "inputs": [
        {
          "internalType": "address",
          "name": "",
          "type": "address"
        }
      ],
      "name": "voters",
      "outputs": [
        {
          "internalType": "bool",
          "name": "hasVoted",
          "type": "bool"
        },
        {
          "internalType": "bool",
          "name": "isRegistered",
          "type": "bool"
        }
      ],
      "stateMutability": "view",
      "type": "function",
      "constant": true
    },
    {
      "inputs": [
        {
          "internalType": "enum Election.PHASE",
          "name": "x",
          "type": "uint8"
        }
      ],
      "name": "changeState",
      "outputs": [],
      "stateMutability": "nonpayable",
      "type": "function"
    },
    {
      "inputs": [
        {
          "internalType": "string",
          "name": "_name",
          "type": "string"
        }
      ],
      "name": "addContestant",
      "outputs": [],
      "stateMutability": "nonpayable",
      "type": "function"
    },
    {
      "inputs": [
        {
          "internalType": "address",
          "name": "user",
          "type": "address"
        }
      ],
      "name": "voterRegisteration",
      "outputs": [],
      "stateMutability": "nonpayable",
      "type": "function"
    },
    {
      "inputs": [
        {
          "internalType": "uint256",
          "name": "_contestantId",
          "type": "uint256"
        }
      ],
      "name": "vote",
      "outputs": [],
      "stateMutability": "nonpayable",
      "type": "function"
    },
    {
      "inputs": [],
      "name": "getContestantCount",
      "outputs": [
        {
          "internalType": "uint256",
          "name": "",
          "type": "uint256"
        }
      ],
      "stateMutability": "view",
      "type": "function",
      "constant": true
    },
    {
      "inputs": [],
      "name": "getPhase",
      "outputs": [
        {
          "internalType": "uint256",
          "name": "",
          "type": "uint256"
        }
      ],
      "stateMutability": "view",
      "type": "function",
      "constant": true
    }
  ],
  "bytecode": "0x608060405234801561001057600080fd5b50336000806101000a81548173ffffffffffffffffffffffffffffffffffffffff021916908373ffffffffffffffffffffffffffffffffffffffff1602179055506000600460006101000a81548160ff0219169083600281111561007757610076610081565b5b02179055506100b0565b7f4e487b7100000000000000000000000000000000000000000000000000000000600052602160045260246000fd5b611028806100bf6000396000f3fe608060405234801561001057600080fd5b506004361061009e5760003560e01c8063a3ec138d11610066578063a3ec138d14610131578063c19d93fb14610162578063dfd50f5214610180578063ec63d1c8146101b2578063eced0280146101d05761009e565b80630121b93f146100a3578063090bdf4f146100bf578063268f1153146100dd578063698ceb5f146100f9578063832c0aca14610115575b600080fd5b6100bd60048036038101906100b89190610847565b6101ee565b005b6100c7610388565b6040516100d49190610883565b60405180910390f35b6100f760048036038101906100f291906108c3565b610392565b005b610113600480360381019061010e919061094e565b610456565b005b61012f600480360381019061012a9190610ac1565b61054e565b005b61014b6004803603810190610146919061094e565b610663565b604051610159929190610b25565b60405180910390f35b61016a6106a1565b6040516101779190610bc5565b60405180910390f35b61019a60048036038101906101959190610847565b6106b4565b6040516101a993929190610c5f565b60405180910390f35b6101ba610766565b6040516101c79190610883565b60405180910390f35b6101d861076c565b6040516101e59190610883565b60405180910390f35b600180600281111561020357610202610b4e565b5b600460009054906101000a900460ff16600281111561022557610224610b4e565b5b1461022f57600080fd5b600260003373ffffffffffffffffffffffffffffffffffffffff1673ffffffffffffffffffffffffffffffffffffffff16815260200190815260200160002060000160019054906101000a900460ff1661028857600080fd5b600260003373ffffffffffffffffffffffffffffffffffffffff1673ffffffffffffffffffffffffffffffffffffffff16815260200190815260200160002060000160009054906101000a900460ff16156102e257600080fd5b6000821180156102f457506003548211155b6102fd57600080fd5b60016000838152602001908152602001600020600201600081548092919061032490610ccc565b91905055506001600260003373ffffffffffffffffffffffffffffffffffffffff1673ffffffffffffffffffffffffffffffffffffffff16815260200190815260200160002060000160006101000a81548160ff0219169083151502179055505050565b6000600354905090565b60008054906101000a900473ffffffffffffffffffffffffffffffffffffffff1673ffffffffffffffffffffffffffffffffffffffff163373ffffffffffffffffffffffffffffffffffffffff16146103ea57600080fd5b600460009054906101000a900460ff16600281111561040c5761040b610b4e565b5b81600281111561041f5761041e610b4e565b5b1161042957600080fd5b80600460006101000a81548160ff0219169083600281111561044e5761044d610b4e565b5b021790555050565b60008054906101000a900473ffffffffffffffffffffffffffffffffffffffff1673ffffffffffffffffffffffffffffffffffffffff163373ffffffffffffffffffffffffffffffffffffffff16146104ae57600080fd5b60008060028111156104c3576104c2610b4e565b5b600460009054906101000a900460ff1660028111156104e5576104e4610b4e565b5b146104ef57600080fd5b6001600260008473ffffffffffffffffffffffffffffffffffffffff1673ffffffffffffffffffffffffffffffffffffffff16815260200190815260200160002060000160016101000a81548160ff0219169083151502179055505050565b60008054906101000a900473ffffffffffffffffffffffffffffffffffffffff1673ffffffffffffffffffffffffffffffffffffffff163373ffffffffffffffffffffffffffffffffffffffff16146105a657600080fd5b60008060028111156105bb576105ba610b4e565b5b600460009054906101000a900460ff1660028111156105dd576105dc610b4e565b5b146105e757600080fd5b600360008154809291906105fa90610ccc565b91905055506040518060600160405280600354815260200183815260200160008152506001600060035481526020019081526020016000206000820151816000015560208201518160010190816106519190610f20565b50604082015181600201559050505050565b60026020528060005260406000206000915090508060000160009054906101000a900460ff16908060000160019054906101000a900460ff16905082565b600460009054906101000a900460ff1681565b60016020528060005260406000206000915090508060000154908060010180546106dd90610d43565b80601f016020809104026020016040519081016040528092919081815260200182805461070990610d43565b80156107565780601f1061072b57610100808354040283529160200191610756565b820191906000526020600020905b81548152906001019060200180831161073957829003601f168201915b5050505050908060020154905083565b60035481565b600080600281111561078157610780610b4e565b5b600460009054906101000a900460ff1660028111156107a3576107a2610b4e565b5b036107b157600090506107fa565b600160028111156107c5576107c4610b4e565b5b600460009054906101000a900460ff1660028111156107e7576107e6610b4e565b5b036107f557600190506107fa565b600290505b90565b6000604051905090565b600080fd5b600080fd5b6000819050919050565b61082481610811565b811461082f57600080fd5b50565b6000813590506108418161081b565b92915050565b60006020828403121561085d5761085c610807565b5b600061086b84828501610832565b91505092915050565b61087d81610811565b82525050565b60006020820190506108986000830184610874565b92915050565b600381106108ab57600080fd5b50565b6000813590506108bd8161089e565b92915050565b6000602082840312156108d9576108d8610807565b5b60006108e7848285016108ae565b91505092915050565b600073ffffffffffffffffffffffffffffffffffffffff82169050919050565b600061091b826108f0565b9050919050565b61092b81610910565b811461093657600080fd5b50565b60008135905061094881610922565b92915050565b60006020828403121561096457610963610807565b5b600061097284828501610939565b91505092915050565b600080fd5b600080fd5b6000601f19601f8301169050919050565b7f4e487b7100000000000000000000000000000000000000000000000000000000600052604160045260246000fd5b6109ce82610985565b810181811067ffffffffffffffff821117156109ed576109ec610996565b5b80604052505050565b6000610a006107fd565b9050610a0c82826109c5565b919050565b600067ffffffffffffffff821115610a2c57610a2b610996565b5b610a3582610985565b9050602081019050919050565b82818337600083830152505050565b6000610a64610a5f84610a11565b6109f6565b905082815260208101848484011115610a8057610a7f610980565b5b610a8b848285610a42565b509392505050565b600082601f830112610aa857610aa761097b565b5b8135610ab8848260208601610a51565b91505092915050565b600060208284031215610ad757610ad6610807565b5b600082013567ffffffffffffffff811115610af557610af461080c565b5b610b0184828501610a93565b91505092915050565b60008115159050919050565b610b1f81610b0a565b82525050565b6000604082019050610b3a6000830185610b16565b610b476020830184610b16565b9392505050565b7f4e487b7100000000000000000000000000000000000000000000000000000000600052602160045260246000fd5b60038110610b8e57610b8d610b4e565b5b50565b6000819050610b9f82610b7d565b919050565b6000610baf82610b91565b9050919050565b610bbf81610ba4565b82525050565b6000602082019050610bda6000830184610bb6565b92915050565b600081519050919050565b600082825260208201905092915050565b60005b83811015610c1a578082015181840152602081019050610bff565b60008484015250505050565b6000610c3182610be0565b610c3b8185610beb565b9350610c4b818560208601610bfc565b610c5481610985565b840191505092915050565b6000606082019050610c746000830186610874565b8181036020830152610c868185610c26565b9050610c956040830184610874565b949350505050565b7f4e487b7100000000000000000000000000000000000000000000000000000000600052601160045260246000fd5b6000610cd782610811565b91507fffffffffffffffffffffffffffffffffffffffffffffffffffffffffffffffff8203610d0957610d08610c9d565b5b600182019050919050565b7f4e487b7100000000000000000000000000000000000000000000000000000000600052602260045260246000fd5b60006002820490506001821680610d5b57607f821691505b602082108103610d6e57610d6d610d14565b5b50919050565b60008190508160005260206000209050919050565b60006020601f8301049050919050565b600082821b905092915050565b600060088302610dd67fffffffffffffffffffffffffffffffffffffffffffffffffffffffffffffffff82610d99565b610de08683610d99565b95508019841693508086168417925050509392505050565b6000819050919050565b6000610e1d610e18610e1384610811565b610df8565b610811565b9050919050565b6000819050919050565b610e3783610e02565b610e4b610e4382610e24565b848454610da6565b825550505050565b600090565b610e60610e53565b610e6b818484610e2e565b505050565b5b81811015610e8f57610e84600082610e58565b600181019050610e71565b5050565b601f821115610ed457610ea581610d74565b610eae84610d89565b81016020851015610ebd578190505b610ed1610ec985610d89565b830182610e70565b50505b505050565b600082821c905092915050565b6000610ef760001984600802610ed9565b1980831691505092915050565b6000610f108383610ee6565b9150826002028217905092915050565b610f2982610be0565b67ffffffffffffffff811115610f4257610f41610996565b5b610f4c8254610d43565b610f57828285610e93565b600060209050601f831160018114610f8a5760008415610f78578287015190505b610f828582610f04565b865550610fea565b601f198416610f9886610d74565b60005b82811015610fc057848901518255600182019150602085019450602081019050610f9b565b86831015610fdd5784890151610fd9601f891682610ee6565b8355505b6001600288020188555050505b50505050505056fea2646970667358221220bcc2d6d215386cb5d674f09f711c81ed646967296f06d38a5788698ebba6479564736f6c63430008120033",
  "immutableReferences": {},
  "source": "// SPDX-License-Identifier: MIT\r\npragma solidity >=0.4.22 <0.9.0;\r\n\r\ncontract Election{\r\n\t\r\n\tstruct Contestant{\r\n\t\tuint id;\r\n\t\tstring name;\r\n\t\tuint voteCount;\r\n\t}\r\n\r\n\tstruct Voter{\r\n\t\tbool hasVoted;\r\n\t\tbool isRegistered;\r\n\t}\r\n\r\n\taddress admin;\r\n\tmapping(uint => Contestant) public contestants; \r\n    mapping(address => Voter) public voters;\r\n\tuint public contestantsCount;\r\n\tenum PHASE{reg, voting , done}\r\n\tPHASE public state;\r\n\r\n\tmodifier onlyAdmin(){\r\n\t\trequire(msg.sender==admin);\r\n\t\t_;\r\n\t}\r\n\t\r\n\tmodifier validState(PHASE x){\r\n\t    require(state==x);\r\n\t    _;\r\n\t}\r\n\r\n\tconstructor(){\r\n\t\tadmin=msg.sender;\r\n        state=PHASE.reg;\r\n\t}\r\n\r\n    function changeState(PHASE x) onlyAdmin public{\r\n\t\trequire(x > state);\r\n        state = x;\r\n    }\r\n\r\n\tfunction addContestant(string memory _name) public onlyAdmin validState(PHASE.reg){\r\n\t\tcontestantsCount++;\r\n\t\tcontestants[contestantsCount]=Contestant(contestantsCount,_name,0);\r\n\t}\r\n\r\n\tfunction voterRegisteration(address user) public onlyAdmin validState(PHASE.reg){\r\n\t\tvoters[user].isRegistered=true;\r\n\t}\r\n\r\n\tfunction vote(uint _contestantId) public validState(PHASE.voting){\r\n        \r\n\t\trequire(voters[msg.sender].isRegistered);\r\n\t\trequire(!voters[msg.sender].hasVoted);\r\n        require(_contestantId > 0 && _contestantId<=contestantsCount);\r\n\t\tcontestants[_contestantId].voteCount++;\r\n\t\tvoters[msg.sender].hasVoted=true;\r\n\t}\r\n\r\n\tfunction getContestantCount() public view returns (uint) {\r\n\t\treturn contestantsCount;\r\n\t}\r\n\r\n\tfunction getPhase() public view returns (uint) {\r\n\t\tif(state == PHASE.reg){\r\n\t\t\treturn 0;\r\n\t\t}\r\n\t\telse if(state == PHASE.voting){\r\n\t\t\treturn 1;\r\n\t\t}\r\n\t\treturn 2;\r\n\t}\r\n}",
  "sourcePath": "/Users/shesha4572/WebstormProjects/votingdapp/truffle/contracts/Election.sol",
  "compiler": {
    "name": "solc",
    "version": "0.8.18+commit.87f61d96.Emscripten.clang"
  },
  "schemaVersion": "3.4.12",
  "updatedAt": "2023-04-08T06:17:13.658Z",
  "networkType": "ethereum",
  "devdoc": {
    "kind": "dev",
    "methods": {},
    "version": 1
  },
  "userdoc": {
    "kind": "user",
    "methods": {},
    "version": 1
  }
}